{
  "_format": "hh-sol-artifact-1",
  "contractName": "KUTEKOI",
  "sourceName": "contracts/KUTEKOI.sol",
  "abi": [
    {
      "inputs": [],
      "stateMutability": "nonpayable",
      "type": "constructor"
    },
    {
      "anonymous": false,
      "inputs": [
        {
          "indexed": true,
          "internalType": "address",
          "name": "owner",
          "type": "address"
        },
        {
          "indexed": true,
          "internalType": "address",
          "name": "spender",
          "type": "address"
        },
        {
          "indexed": false,
          "internalType": "uint256",
          "name": "value",
          "type": "uint256"
        }
      ],
      "name": "Approval",
      "type": "event"
    },
    {
      "anonymous": false,
      "inputs": [
        {
          "indexed": true,
          "internalType": "address",
          "name": "previousOwner",
          "type": "address"
        },
        {
          "indexed": true,
          "internalType": "address",
          "name": "newOwner",
          "type": "address"
        }
      ],
      "name": "OwnershipTransferred",
      "type": "event"
    },
    {
      "anonymous": false,
      "inputs": [
        {
          "indexed": true,
          "internalType": "address",
          "name": "from",
          "type": "address"
        },
        {
          "indexed": true,
          "internalType": "address",
          "name": "to",
          "type": "address"
        },
        {
          "indexed": false,
          "internalType": "uint256",
          "name": "value",
          "type": "uint256"
        }
      ],
      "name": "Transfer",
      "type": "event"
    },
    {
      "inputs": [
        {
          "internalType": "address",
          "name": "owner",
          "type": "address"
        },
        {
          "internalType": "address",
          "name": "spender",
          "type": "address"
        }
      ],
      "name": "allowance",
      "outputs": [
        {
          "internalType": "uint256",
          "name": "",
          "type": "uint256"
        }
      ],
      "stateMutability": "view",
      "type": "function"
    },
    {
      "inputs": [
        {
          "internalType": "address",
          "name": "spender",
          "type": "address"
        },
        {
          "internalType": "uint256",
          "name": "amount",
          "type": "uint256"
        }
      ],
      "name": "approve",
      "outputs": [
        {
          "internalType": "bool",
          "name": "",
          "type": "bool"
        }
      ],
      "stateMutability": "nonpayable",
      "type": "function"
    },
    {
      "inputs": [
        {
          "internalType": "address",
          "name": "account",
          "type": "address"
        }
      ],
      "name": "balanceOf",
      "outputs": [
        {
          "internalType": "uint256",
          "name": "",
          "type": "uint256"
        }
      ],
      "stateMutability": "view",
      "type": "function"
    },
    {
      "inputs": [],
      "name": "decimals",
      "outputs": [
        {
          "internalType": "uint8",
          "name": "",
          "type": "uint8"
        }
      ],
      "stateMutability": "view",
      "type": "function"
    },
    {
      "inputs": [
        {
          "internalType": "address",
          "name": "spender",
          "type": "address"
        },
        {
          "internalType": "uint256",
          "name": "subtractedValue",
          "type": "uint256"
        }
      ],
      "name": "decreaseAllowance",
      "outputs": [
        {
          "internalType": "bool",
          "name": "",
          "type": "bool"
        }
      ],
      "stateMutability": "nonpayable",
      "type": "function"
    },
    {
      "inputs": [
        {
          "internalType": "address",
          "name": "account",
          "type": "address"
        }
      ],
      "name": "excludeAccount",
      "outputs": [],
      "stateMutability": "nonpayable",
      "type": "function"
    },
    {
      "inputs": [
        {
          "internalType": "address",
          "name": "account",
          "type": "address"
        }
      ],
      "name": "includeAccount",
      "outputs": [],
      "stateMutability": "nonpayable",
      "type": "function"
    },
    {
      "inputs": [
        {
          "internalType": "address",
          "name": "spender",
          "type": "address"
        },
        {
          "internalType": "uint256",
          "name": "addedValue",
          "type": "uint256"
        }
      ],
      "name": "increaseAllowance",
      "outputs": [
        {
          "internalType": "bool",
          "name": "",
          "type": "bool"
        }
      ],
      "stateMutability": "nonpayable",
      "type": "function"
    },
    {
      "inputs": [
        {
          "internalType": "address",
          "name": "account",
          "type": "address"
        }
      ],
      "name": "isExcluded",
      "outputs": [
        {
          "internalType": "bool",
          "name": "",
          "type": "bool"
        }
      ],
      "stateMutability": "view",
      "type": "function"
    },
    {
      "inputs": [],
      "name": "name",
      "outputs": [
        {
          "internalType": "string",
          "name": "",
          "type": "string"
        }
      ],
      "stateMutability": "view",
      "type": "function"
    },
    {
      "inputs": [],
      "name": "owner",
      "outputs": [
        {
          "internalType": "address",
          "name": "",
          "type": "address"
        }
      ],
      "stateMutability": "view",
      "type": "function"
    },
    {
      "inputs": [
        {
          "internalType": "uint256",
          "name": "tAmount",
          "type": "uint256"
        }
      ],
      "name": "reflect",
      "outputs": [],
      "stateMutability": "nonpayable",
      "type": "function"
    },
    {
      "inputs": [
        {
          "internalType": "uint256",
          "name": "tAmount",
          "type": "uint256"
        },
        {
          "internalType": "bool",
          "name": "deductTransferFee",
          "type": "bool"
        }
      ],
      "name": "reflectionFromToken",
      "outputs": [
        {
          "internalType": "uint256",
          "name": "",
          "type": "uint256"
        }
      ],
      "stateMutability": "view",
      "type": "function"
    },
    {
      "inputs": [],
      "name": "renounceOwnership",
      "outputs": [],
      "stateMutability": "nonpayable",
      "type": "function"
    },
    {
      "inputs": [],
      "name": "symbol",
      "outputs": [
        {
          "internalType": "string",
          "name": "",
          "type": "string"
        }
      ],
      "stateMutability": "view",
      "type": "function"
    },
    {
      "inputs": [
        {
          "internalType": "uint256",
          "name": "rAmount",
          "type": "uint256"
        }
      ],
      "name": "tokenFromReflection",
      "outputs": [
        {
          "internalType": "uint256",
          "name": "",
          "type": "uint256"
        }
      ],
      "stateMutability": "view",
      "type": "function"
    },
    {
      "inputs": [],
      "name": "totalFees",
      "outputs": [
        {
          "internalType": "uint256",
          "name": "",
          "type": "uint256"
        }
      ],
      "stateMutability": "view",
      "type": "function"
    },
    {
      "inputs": [],
      "name": "totalSupply",
      "outputs": [
        {
          "internalType": "uint256",
          "name": "",
          "type": "uint256"
        }
      ],
      "stateMutability": "pure",
      "type": "function"
    },
    {
      "inputs": [
        {
          "internalType": "address",
          "name": "recipient",
          "type": "address"
        },
        {
          "internalType": "uint256",
          "name": "amount",
          "type": "uint256"
        }
      ],
      "name": "transfer",
      "outputs": [
        {
          "internalType": "bool",
          "name": "",
          "type": "bool"
        }
      ],
      "stateMutability": "nonpayable",
      "type": "function"
    },
    {
      "inputs": [
        {
          "internalType": "address",
          "name": "sender",
          "type": "address"
        },
        {
          "internalType": "address",
          "name": "recipient",
          "type": "address"
        },
        {
          "internalType": "uint256",
          "name": "amount",
          "type": "uint256"
        }
      ],
      "name": "transferFrom",
      "outputs": [
        {
          "internalType": "bool",
          "name": "",
          "type": "bool"
        }
      ],
      "stateMutability": "nonpayable",
      "type": "function"
    },
    {
      "inputs": [
        {
          "internalType": "address",
          "name": "newOwner",
          "type": "address"
        }
      ],
      "name": "transferOwnership",
      "outputs": [],
      "stateMutability": "nonpayable",
      "type": "function"
    }
  ],
  "bytecode": "0x6080604052662386f26fc100006000196200001b919062000411565b6000196200002a919062000396565b6006556040518060400160405280600781526020017f4b5554454b4f4900000000000000000000000000000000000000000000000000815250600890805190602001906200007a929190620002b8565b506040518060400160405280600781526020017f4b7574654b6f690000000000000000000000000000000000000000000000000081525060099080519060200190620000c8929190620002b8565b506009600a60006101000a81548160ff021916908360ff160217905550348015620000f257600080fd5b506200011362000107620001ec60201b60201c565b620001f460201b60201c565b600654600160006200012a620001ec60201b60201c565b73ffffffffffffffffffffffffffffffffffffffff1673ffffffffffffffffffffffffffffffffffffffff1681526020019081526020016000208190555062000178620001ec60201b60201c565b73ffffffffffffffffffffffffffffffffffffffff16600073ffffffffffffffffffffffffffffffffffffffff167fddf252ad1be2c89b69c2b068fc378daa952ba7f163c4a11628f55a4df523b3ef662386f26fc10000604051620001de919062000379565b60405180910390a3620004d6565b600033905090565b60008060009054906101000a900473ffffffffffffffffffffffffffffffffffffffff169050816000806101000a81548173ffffffffffffffffffffffffffffffffffffffff021916908373ffffffffffffffffffffffffffffffffffffffff1602179055508173ffffffffffffffffffffffffffffffffffffffff168173ffffffffffffffffffffffffffffffffffffffff167f8be0079c531659141344cd1fd0a4f28419497f9722a3daafe3b4186f6b6457e060405160405180910390a35050565b828054620002c690620003db565b90600052602060002090601f016020900481019282620002ea576000855562000336565b82601f106200030557805160ff191683800117855562000336565b8280016001018555821562000336579182015b828111156200033557825182559160200191906001019062000318565b5b50905062000345919062000349565b5090565b5b80821115620003645760008160009055506001016200034a565b5090565b6200037381620003d1565b82525050565b600060208201905062000390600083018462000368565b92915050565b6000620003a382620003d1565b9150620003b083620003d1565b925082821015620003c657620003c562000449565b5b828203905092915050565b6000819050919050565b60006002820490506001821680620003f457607f821691505b602082108114156200040b576200040a620004a7565b5b50919050565b60006200041e82620003d1565b91506200042b83620003d1565b9250826200043e576200043d62000478565b5b828206905092915050565b7f4e487b7100000000000000000000000000000000000000000000000000000000600052601160045260246000fd5b7f4e487b7100000000000000000000000000000000000000000000000000000000600052601260045260246000fd5b7f4e487b7100000000000000000000000000000000000000000000000000000000600052602260045260246000fd5b61386a80620004e66000396000f3fe608060405234801561001057600080fd5b50600436106101375760003560e01c806370a08231116100b8578063a9059cbb1161007c578063a9059cbb14610366578063cba0e99614610396578063dd62ed3e146103c6578063f2cc0c18146103f6578063f2fde38b14610412578063f84354f11461042e57610137565b806370a08231146102c0578063715018a6146102f05780638da5cb5b146102fa57806395d89b4114610318578063a457c2d71461033657610137565b806323b872dd116100ff57806323b872dd146101e25780632d83811914610212578063313ce5671461024257806339509351146102605780634549b0391461029057610137565b8063053ab1821461013c57806306fdde0314610158578063095ea7b31461017657806313114a9d146101a657806318160ddd146101c4575b600080fd5b61015660048036038101906101519190612c92565b61044a565b005b6101606105c4565b60405161016d9190612f69565b60405180910390f35b610190600480360381019061018b9190612c56565b610656565b60405161019d9190612f4e565b60405180910390f35b6101ae610674565b6040516101bb919061312b565b60405180910390f35b6101cc61067e565b6040516101d9919061312b565b60405180910390f35b6101fc60048036038101906101f79190612c07565b61068d565b6040516102099190612f4e565b60405180910390f35b61022c60048036038101906102279190612c92565b610766565b604051610239919061312b565b60405180910390f35b61024a6107d4565b6040516102579190613146565b60405180910390f35b61027a60048036038101906102759190612c56565b6107eb565b6040516102879190612f4e565b60405180910390f35b6102aa60048036038101906102a59190612cbb565b61089e565b6040516102b7919061312b565b60405180910390f35b6102da60048036038101906102d59190612ba2565b610925565b6040516102e7919061312b565b60405180910390f35b6102f8610a10565b005b610302610a98565b60405161030f9190612f33565b60405180910390f35b610320610ac1565b60405161032d9190612f69565b60405180910390f35b610350600480360381019061034b9190612c56565b610b53565b60405161035d9190612f4e565b60405180910390f35b610380600480360381019061037b9190612c56565b610c20565b60405161038d9190612f4e565b60405180910390f35b6103b060048036038101906103ab9190612ba2565b610c3e565b6040516103bd9190612f4e565b60405180910390f35b6103e060048036038101906103db9190612bcb565b610c94565b6040516103ed919061312b565b60405180910390f35b610410600480360381019061040b9190612ba2565b610d1b565b005b61042c60048036038101906104279190612ba2565b610fb6565b005b61044860048036038101906104439190612ba2565b6110ae565b005b600061045461147c565b9050600460008273ffffffffffffffffffffffffffffffffffffffff1673ffffffffffffffffffffffffffffffffffffffff16815260200190815260200160002060009054906101000a900460ff16156104e3576040517f08c379a00000000000000000000000000000000000000000000000000000000081526004016104da9061310b565b60405180910390fd5b60006104ee83611484565b50505050905061054681600160008573ffffffffffffffffffffffffffffffffffffffff1673ffffffffffffffffffffffffffffffffffffffff168152602001908152602001600020546114dc90919063ffffffff16565b600160008473ffffffffffffffffffffffffffffffffffffffff1673ffffffffffffffffffffffffffffffffffffffff1681526020019081526020016000208190555061059e816006546114dc90919063ffffffff16565b6006819055506105b98360075461152690919063ffffffff16565b600781905550505050565b6060600880546105d39061331a565b80601f01602080910402602001604051908101604052809291908181526020018280546105ff9061331a565b801561064c5780601f106106215761010080835404028352916020019161064c565b820191906000526020600020905b81548152906001019060200180831161062f57829003601f168201915b5050505050905090565b600061066a61066361147c565b8484611584565b6001905092915050565b6000600754905090565b6000662386f26fc10000905090565b600061069a84848461174f565b61075b846106a661147c565b610756856040518060600160405280602a81526020016137e4602a9139600360008b73ffffffffffffffffffffffffffffffffffffffff1673ffffffffffffffffffffffffffffffffffffffff168152602001908152602001600020600061070c61147c565b73ffffffffffffffffffffffffffffffffffffffff1673ffffffffffffffffffffffffffffffffffffffff16815260200190815260200160002054611b669092919063ffffffff16565b611584565b600190509392505050565b60006006548211156107ad576040517f08c379a00000000000000000000000000000000000000000000000000000000081526004016107a490612fab565b60405180910390fd5b60006107b7611bca565b90506107cc8184611bf590919063ffffffff16565b915050919050565b6000600a60009054906101000a900460ff16905090565b60006108946107f861147c565b8461088f856003600061080961147c565b73ffffffffffffffffffffffffffffffffffffffff1673ffffffffffffffffffffffffffffffffffffffff16815260200190815260200160002060008973ffffffffffffffffffffffffffffffffffffffff1673ffffffffffffffffffffffffffffffffffffffff1681526020019081526020016000205461152690919063ffffffff16565b611584565b6001905092915050565b6000662386f26fc100008311156108ea576040517f08c379a00000000000000000000000000000000000000000000000000000000081526004016108e19061306b565b60405180910390fd5b816109095760006108fa84611484565b5050505090508091505061091f565b600061091484611484565b505050915050809150505b92915050565b6000600460008373ffffffffffffffffffffffffffffffffffffffff1673ffffffffffffffffffffffffffffffffffffffff16815260200190815260200160002060009054906101000a900460ff16156109c057600260008373ffffffffffffffffffffffffffffffffffffffff1673ffffffffffffffffffffffffffffffffffffffff168152602001908152602001600020549050610a0b565b610a08600160008473ffffffffffffffffffffffffffffffffffffffff1673ffffffffffffffffffffffffffffffffffffffff16815260200190815260200160002054610766565b90505b919050565b610a1861147c565b73ffffffffffffffffffffffffffffffffffffffff16610a36610a98565b73ffffffffffffffffffffffffffffffffffffffff1614610a8c576040517f08c379a0000000000000000000000000000000000000000000000000000000008152600401610a83906130ab565b60405180910390fd5b610a966000611c3f565b565b60008060009054906101000a900473ffffffffffffffffffffffffffffffffffffffff16905090565b606060098054610ad09061331a565b80601f0160208091040260200160405190810160405280929190818152602001828054610afc9061331a565b8015610b495780601f10610b1e57610100808354040283529160200191610b49565b820191906000526020600020905b815481529060010190602001808311610b2c57829003601f168201915b5050505050905090565b6000610c16610b6061147c565b84610c118560405180606001604052806027815260200161380e6027913960036000610b8a61147c565b73ffffffffffffffffffffffffffffffffffffffff1673ffffffffffffffffffffffffffffffffffffffff16815260200190815260200160002060008a73ffffffffffffffffffffffffffffffffffffffff1673ffffffffffffffffffffffffffffffffffffffff16815260200190815260200160002054611b669092919063ffffffff16565b611584565b6001905092915050565b6000610c34610c2d61147c565b848461174f565b6001905092915050565b6000600460008373ffffffffffffffffffffffffffffffffffffffff1673ffffffffffffffffffffffffffffffffffffffff16815260200190815260200160002060009054906101000a900460ff169050919050565b6000600360008473ffffffffffffffffffffffffffffffffffffffff1673ffffffffffffffffffffffffffffffffffffffff16815260200190815260200160002060008373ffffffffffffffffffffffffffffffffffffffff1673ffffffffffffffffffffffffffffffffffffffff16815260200190815260200160002054905092915050565b610d2361147c565b73ffffffffffffffffffffffffffffffffffffffff16610d41610a98565b73ffffffffffffffffffffffffffffffffffffffff1614610d97576040517f08c379a0000000000000000000000000000000000000000000000000000000008152600401610d8e906130ab565b60405180910390fd5b600460008273ffffffffffffffffffffffffffffffffffffffff1673ffffffffffffffffffffffffffffffffffffffff16815260200190815260200160002060009054906101000a900460ff1615610e24576040517f08c379a0000000000000000000000000000000000000000000000000000000008152600401610e1b9061302b565b60405180910390fd5b6000600160008373ffffffffffffffffffffffffffffffffffffffff1673ffffffffffffffffffffffffffffffffffffffff168152602001908152602001600020541115610ef857610eb4600160008373ffffffffffffffffffffffffffffffffffffffff1673ffffffffffffffffffffffffffffffffffffffff16815260200190815260200160002054610766565b600260008373ffffffffffffffffffffffffffffffffffffffff1673ffffffffffffffffffffffffffffffffffffffff168152602001908152602001600020819055505b6001600460008373ffffffffffffffffffffffffffffffffffffffff1673ffffffffffffffffffffffffffffffffffffffff16815260200190815260200160002060006101000a81548160ff0219169083151502179055506005819080600181540180825580915050600190039060005260206000200160009091909190916101000a81548173ffffffffffffffffffffffffffffffffffffffff021916908373ffffffffffffffffffffffffffffffffffffffff16021790555050565b610fbe61147c565b73ffffffffffffffffffffffffffffffffffffffff16610fdc610a98565b73ffffffffffffffffffffffffffffffffffffffff1614611032576040517f08c379a0000000000000000000000000000000000000000000000000000000008152600401611029906130ab565b60405180910390fd5b600073ffffffffffffffffffffffffffffffffffffffff168173ffffffffffffffffffffffffffffffffffffffff1614156110a2576040517f08c379a000000000000000000000000000000000000000000000000000000000815260040161109990612fcb565b60405180910390fd5b6110ab81611c3f565b50565b6110b661147c565b73ffffffffffffffffffffffffffffffffffffffff166110d4610a98565b73ffffffffffffffffffffffffffffffffffffffff161461112a576040517f08c379a0000000000000000000000000000000000000000000000000000000008152600401611121906130ab565b60405180910390fd5b600460008273ffffffffffffffffffffffffffffffffffffffff1673ffffffffffffffffffffffffffffffffffffffff16815260200190815260200160002060009054906101000a900460ff166111b6576040517f08c379a00000000000000000000000000000000000000000000000000000000081526004016111ad9061302b565b60405180910390fd5b60005b600580549050811015611478578173ffffffffffffffffffffffffffffffffffffffff1660058281548110611217577f4e487b7100000000000000000000000000000000000000000000000000000000600052603260045260246000fd5b9060005260206000200160009054906101000a900473ffffffffffffffffffffffffffffffffffffffff1673ffffffffffffffffffffffffffffffffffffffff1614156114655760056001600580549050611272919061325e565b815481106112a9577f4e487b7100000000000000000000000000000000000000000000000000000000600052603260045260246000fd5b9060005260206000200160009054906101000a900473ffffffffffffffffffffffffffffffffffffffff166005828154811061130e577f4e487b7100000000000000000000000000000000000000000000000000000000600052603260045260246000fd5b9060005260206000200160006101000a81548173ffffffffffffffffffffffffffffffffffffffff021916908373ffffffffffffffffffffffffffffffffffffffff1602179055506000600260008473ffffffffffffffffffffffffffffffffffffffff1673ffffffffffffffffffffffffffffffffffffffff168152602001908152602001600020819055506000600460008473ffffffffffffffffffffffffffffffffffffffff1673ffffffffffffffffffffffffffffffffffffffff16815260200190815260200160002060006101000a81548160ff021916908315150217905550600580548061142b577f4e487b7100000000000000000000000000000000000000000000000000000000600052603160045260246000fd5b6001900381819060005260206000200160006101000a81549073ffffffffffffffffffffffffffffffffffffffff02191690559055611478565b80806114709061334c565b9150506111b9565b5050565b600033905090565b600080600080600080600061149888611d03565b9150915060006114a6611bca565b905060008060006114b88c8686611d42565b92509250925082828288889a509a509a509a509a5050505050505091939590929450565b600061151e83836040518060400160405280601e81526020017f536166654d6174683a207375627472616374696f6e206f766572666c6f770000815250611b66565b905092915050565b6000808284611535919061317d565b90508381101561157a576040517f08c379a000000000000000000000000000000000000000000000000000000000815260040161157190612feb565b60405180910390fd5b8091505092915050565b600073ffffffffffffffffffffffffffffffffffffffff168373ffffffffffffffffffffffffffffffffffffffff1614156115f4576040517f08c379a00000000000000000000000000000000000000000000000000000000081526004016115eb90612f8b565b60405180910390fd5b600073ffffffffffffffffffffffffffffffffffffffff168273ffffffffffffffffffffffffffffffffffffffff161415611664576040517f08c379a000000000000000000000000000000000000000000000000000000000815260040161165b9061300b565b60405180910390fd5b80600360008573ffffffffffffffffffffffffffffffffffffffff1673ffffffffffffffffffffffffffffffffffffffff16815260200190815260200160002060008473ffffffffffffffffffffffffffffffffffffffff1673ffffffffffffffffffffffffffffffffffffffff168152602001908152602001600020819055508173ffffffffffffffffffffffffffffffffffffffff168373ffffffffffffffffffffffffffffffffffffffff167f8c5be1e5ebec7d5bd14f71427d1e84f3dd0314c0f7b2291e5b200ac8c7c3b92583604051611742919061312b565b60405180910390a3505050565b600073ffffffffffffffffffffffffffffffffffffffff168373ffffffffffffffffffffffffffffffffffffffff1614156117bf576040517f08c379a00000000000000000000000000000000000000000000000000000000081526004016117b6906130eb565b60405180910390fd5b600073ffffffffffffffffffffffffffffffffffffffff168273ffffffffffffffffffffffffffffffffffffffff16141561182f576040517f08c379a00000000000000000000000000000000000000000000000000000000081526004016118269061304b565b60405180910390fd5b60008111611872576040517f08c379a0000000000000000000000000000000000000000000000000000000008152600401611869906130cb565b60405180910390fd5b600460008473ffffffffffffffffffffffffffffffffffffffff1673ffffffffffffffffffffffffffffffffffffffff16815260200190815260200160002060009054906101000a900460ff1680156119155750600460008373ffffffffffffffffffffffffffffffffffffffff1673ffffffffffffffffffffffffffffffffffffffff16815260200190815260200160002060009054906101000a900460ff16155b1561192a57611925838383611da0565b611b61565b600460008473ffffffffffffffffffffffffffffffffffffffff1673ffffffffffffffffffffffffffffffffffffffff16815260200190815260200160002060009054906101000a900460ff161580156119cd5750600460008373ffffffffffffffffffffffffffffffffffffffff1673ffffffffffffffffffffffffffffffffffffffff16815260200190815260200160002060009054906101000a900460ff165b156119e2576119dd838383611ff3565b611b60565b600460008473ffffffffffffffffffffffffffffffffffffffff1673ffffffffffffffffffffffffffffffffffffffff16815260200190815260200160002060009054906101000a900460ff16158015611a865750600460008373ffffffffffffffffffffffffffffffffffffffff1673ffffffffffffffffffffffffffffffffffffffff16815260200190815260200160002060009054906101000a900460ff16155b15611a9b57611a96838383612246565b611b5f565b600460008473ffffffffffffffffffffffffffffffffffffffff1673ffffffffffffffffffffffffffffffffffffffff16815260200190815260200160002060009054906101000a900460ff168015611b3d5750600460008373ffffffffffffffffffffffffffffffffffffffff1673ffffffffffffffffffffffffffffffffffffffff16815260200190815260200160002060009054906101000a900460ff165b15611b5257611b4d838383612404565b611b5e565b611b5d838383612246565b5b5b5b5b505050565b6000838311158290611bae576040517f08c379a0000000000000000000000000000000000000000000000000000000008152600401611ba59190612f69565b60405180910390fd5b5060008385611bbd919061325e565b9050809150509392505050565b6000806000611bd76126ec565b91509150611bee8183611bf590919063ffffffff16565b9250505090565b6000611c3783836040518060400160405280601a81526020017f536166654d6174683a206469766973696f6e206279207a65726f000000000000815250612a4b565b905092915050565b60008060009054906101000a900473ffffffffffffffffffffffffffffffffffffffff169050816000806101000a81548173ffffffffffffffffffffffffffffffffffffffff021916908373ffffffffffffffffffffffffffffffffffffffff1602179055508173ffffffffffffffffffffffffffffffffffffffff168173ffffffffffffffffffffffffffffffffffffffff167f8be0079c531659141344cd1fd0a4f28419497f9722a3daafe3b4186f6b6457e060405160405180910390a35050565b6000806000611d1c606485611bf590919063ffffffff16565b90506000611d3382866114dc90919063ffffffff16565b90508082935093505050915091565b600080600080611d5b8588612aae90919063ffffffff16565b90506000611d728688612aae90919063ffffffff16565b90506000611d8982846114dc90919063ffffffff16565b905082818395509550955050505093509350939050565b6000806000806000611db186611484565b94509450945094509450611e0d86600260008b73ffffffffffffffffffffffffffffffffffffffff1673ffffffffffffffffffffffffffffffffffffffff168152602001908152602001600020546114dc90919063ffffffff16565b600260008a73ffffffffffffffffffffffffffffffffffffffff1673ffffffffffffffffffffffffffffffffffffffff16815260200190815260200160002081905550611ea285600160008b73ffffffffffffffffffffffffffffffffffffffff1673ffffffffffffffffffffffffffffffffffffffff168152602001908152602001600020546114dc90919063ffffffff16565b600160008a73ffffffffffffffffffffffffffffffffffffffff1673ffffffffffffffffffffffffffffffffffffffff16815260200190815260200160002081905550611f3784600160008a73ffffffffffffffffffffffffffffffffffffffff1673ffffffffffffffffffffffffffffffffffffffff1681526020019081526020016000205461152690919063ffffffff16565b600160008973ffffffffffffffffffffffffffffffffffffffff1673ffffffffffffffffffffffffffffffffffffffff16815260200190815260200160002081905550611f848382612b29565b8673ffffffffffffffffffffffffffffffffffffffff168873ffffffffffffffffffffffffffffffffffffffff167fddf252ad1be2c89b69c2b068fc378daa952ba7f163c4a11628f55a4df523b3ef84604051611fe1919061312b565b60405180910390a35050505050505050565b600080600080600061200486611484565b9450945094509450945061206085600160008b73ffffffffffffffffffffffffffffffffffffffff1673ffffffffffffffffffffffffffffffffffffffff168152602001908152602001600020546114dc90919063ffffffff16565b600160008a73ffffffffffffffffffffffffffffffffffffffff1673ffffffffffffffffffffffffffffffffffffffff168152602001908152602001600020819055506120f582600260008a73ffffffffffffffffffffffffffffffffffffffff1673ffffffffffffffffffffffffffffffffffffffff1681526020019081526020016000205461152690919063ffffffff16565b600260008973ffffffffffffffffffffffffffffffffffffffff1673ffffffffffffffffffffffffffffffffffffffff1681526020019081526020016000208190555061218a84600160008a73ffffffffffffffffffffffffffffffffffffffff1673ffffffffffffffffffffffffffffffffffffffff1681526020019081526020016000205461152690919063ffffffff16565b600160008973ffffffffffffffffffffffffffffffffffffffff1673ffffffffffffffffffffffffffffffffffffffff168152602001908152602001600020819055506121d78382612b29565b8673ffffffffffffffffffffffffffffffffffffffff168873ffffffffffffffffffffffffffffffffffffffff167fddf252ad1be2c89b69c2b068fc378daa952ba7f163c4a11628f55a4df523b3ef84604051612234919061312b565b60405180910390a35050505050505050565b600080600080600061225786611484565b945094509450945094506122b385600160008b73ffffffffffffffffffffffffffffffffffffffff1673ffffffffffffffffffffffffffffffffffffffff168152602001908152602001600020546114dc90919063ffffffff16565b600160008a73ffffffffffffffffffffffffffffffffffffffff1673ffffffffffffffffffffffffffffffffffffffff1681526020019081526020016000208190555061234884600160008a73ffffffffffffffffffffffffffffffffffffffff1673ffffffffffffffffffffffffffffffffffffffff1681526020019081526020016000205461152690919063ffffffff16565b600160008973ffffffffffffffffffffffffffffffffffffffff1673ffffffffffffffffffffffffffffffffffffffff168152602001908152602001600020819055506123958382612b29565b8673ffffffffffffffffffffffffffffffffffffffff168873ffffffffffffffffffffffffffffffffffffffff167fddf252ad1be2c89b69c2b068fc378daa952ba7f163c4a11628f55a4df523b3ef846040516123f2919061312b565b60405180910390a35050505050505050565b600080600080600061241586611484565b9450945094509450945061247186600260008b73ffffffffffffffffffffffffffffffffffffffff1673ffffffffffffffffffffffffffffffffffffffff168152602001908152602001600020546114dc90919063ffffffff16565b600260008a73ffffffffffffffffffffffffffffffffffffffff1673ffffffffffffffffffffffffffffffffffffffff1681526020019081526020016000208190555061250685600160008b73ffffffffffffffffffffffffffffffffffffffff1673ffffffffffffffffffffffffffffffffffffffff168152602001908152602001600020546114dc90919063ffffffff16565b600160008a73ffffffffffffffffffffffffffffffffffffffff1673ffffffffffffffffffffffffffffffffffffffff1681526020019081526020016000208190555061259b82600260008a73ffffffffffffffffffffffffffffffffffffffff1673ffffffffffffffffffffffffffffffffffffffff1681526020019081526020016000205461152690919063ffffffff16565b600260008973ffffffffffffffffffffffffffffffffffffffff1673ffffffffffffffffffffffffffffffffffffffff1681526020019081526020016000208190555061263084600160008a73ffffffffffffffffffffffffffffffffffffffff1673ffffffffffffffffffffffffffffffffffffffff1681526020019081526020016000205461152690919063ffffffff16565b600160008973ffffffffffffffffffffffffffffffffffffffff1673ffffffffffffffffffffffffffffffffffffffff1681526020019081526020016000208190555061267d8382612b29565b8673ffffffffffffffffffffffffffffffffffffffff168873ffffffffffffffffffffffffffffffffffffffff167fddf252ad1be2c89b69c2b068fc378daa952ba7f163c4a11628f55a4df523b3ef846040516126da919061312b565b60405180910390a35050505050505050565b600080600060065490506000662386f26fc10000905060005b600580549050811015612a0457826001600060058481548110612751577f4e487b7100000000000000000000000000000000000000000000000000000000600052603260045260246000fd5b9060005260206000200160009054906101000a900473ffffffffffffffffffffffffffffffffffffffff1673ffffffffffffffffffffffffffffffffffffffff1673ffffffffffffffffffffffffffffffffffffffff16815260200190815260200160002054118061286557508160026000600584815481106127fd577f4e487b7100000000000000000000000000000000000000000000000000000000600052603260045260246000fd5b9060005260206000200160009054906101000a900473ffffffffffffffffffffffffffffffffffffffff1673ffffffffffffffffffffffffffffffffffffffff1673ffffffffffffffffffffffffffffffffffffffff16815260200190815260200160002054115b1561288157600654662386f26fc1000094509450505050612a47565b61293760016000600584815481106128c2577f4e487b7100000000000000000000000000000000000000000000000000000000600052603260045260246000fd5b9060005260206000200160009054906101000a900473ffffffffffffffffffffffffffffffffffffffff1673ffffffffffffffffffffffffffffffffffffffff1673ffffffffffffffffffffffffffffffffffffffff16815260200190815260200160002054846114dc90919063ffffffff16565b92506129ef600260006005848154811061297a577f4e487b7100000000000000000000000000000000000000000000000000000000600052603260045260246000fd5b9060005260206000200160009054906101000a900473ffffffffffffffffffffffffffffffffffffffff1673ffffffffffffffffffffffffffffffffffffffff1673ffffffffffffffffffffffffffffffffffffffff16815260200190815260200160002054836114dc90919063ffffffff16565b915080806129fc9061334c565b915050612705565b50612a21662386f26fc10000600654611bf590919063ffffffff16565b821015612a3e57600654662386f26fc10000935093505050612a47565b81819350935050505b9091565b60008083118290612a92576040517f08c379a0000000000000000000000000000000000000000000000000000000008152600401612a899190612f69565b60405180910390fd5b5060008385612aa191906131d3565b9050809150509392505050565b600080831415612ac15760009050612b23565b60008284612acf9190613204565b9050828482612ade91906131d3565b14612b1e576040517f08c379a0000000000000000000000000000000000000000000000000000000008152600401612b159061308b565b60405180910390fd5b809150505b92915050565b612b3e826006546114dc90919063ffffffff16565b600681905550612b598160075461152690919063ffffffff16565b6007819055505050565b600081359050612b728161379e565b92915050565b600081359050612b87816137b5565b92915050565b600081359050612b9c816137cc565b92915050565b600060208284031215612bb457600080fd5b6000612bc284828501612b63565b91505092915050565b60008060408385031215612bde57600080fd5b6000612bec85828601612b63565b9250506020612bfd85828601612b63565b9150509250929050565b600080600060608486031215612c1c57600080fd5b6000612c2a86828701612b63565b9350506020612c3b86828701612b63565b9250506040612c4c86828701612b8d565b9150509250925092565b60008060408385031215612c6957600080fd5b6000612c7785828601612b63565b9250506020612c8885828601612b8d565b9150509250929050565b600060208284031215612ca457600080fd5b6000612cb284828501612b8d565b91505092915050565b60008060408385031215612cce57600080fd5b6000612cdc85828601612b8d565b9250506020612ced85828601612b78565b9150509250929050565b612d0081613292565b82525050565b612d0f816132a4565b82525050565b6000612d2082613161565b612d2a818561316c565b9350612d3a8185602086016132e7565b612d4381613422565b840191505092915050565b6000612d5b60268361316c565b9150612d6682613433565b604082019050919050565b6000612d7e602a8361316c565b9150612d8982613482565b604082019050919050565b6000612da160268361316c565b9150612dac826134d1565b604082019050919050565b6000612dc4601b8361316c565b9150612dcf82613520565b602082019050919050565b6000612de760248361316c565b9150612df282613549565b604082019050919050565b6000612e0a601b8361316c565b9150612e1582613598565b602082019050919050565b6000612e2d60258361316c565b9150612e38826135c1565b604082019050919050565b6000612e50601f8361316c565b9150612e5b82613610565b602082019050919050565b6000612e7360218361316c565b9150612e7e82613639565b604082019050919050565b6000612e9660208361316c565b9150612ea182613688565b602082019050919050565b6000612eb960298361316c565b9150612ec4826136b1565b604082019050919050565b6000612edc60278361316c565b9150612ee782613700565b604082019050919050565b6000612eff602c8361316c565b9150612f0a8261374f565b604082019050919050565b612f1e816132d0565b82525050565b612f2d816132da565b82525050565b6000602082019050612f486000830184612cf7565b92915050565b6000602082019050612f636000830184612d06565b92915050565b60006020820190508181036000830152612f838184612d15565b905092915050565b60006020820190508181036000830152612fa481612d4e565b9050919050565b60006020820190508181036000830152612fc481612d71565b9050919050565b60006020820190508181036000830152612fe481612d94565b9050919050565b6000602082019050818103600083015261300481612db7565b9050919050565b6000602082019050818103600083015261302481612dda565b9050919050565b6000602082019050818103600083015261304481612dfd565b9050919050565b6000602082019050818103600083015261306481612e20565b9050919050565b6000602082019050818103600083015261308481612e43565b9050919050565b600060208201905081810360008301526130a481612e66565b9050919050565b600060208201905081810360008301526130c481612e89565b9050919050565b600060208201905081810360008301526130e481612eac565b9050919050565b6000602082019050818103600083015261310481612ecf565b9050919050565b6000602082019050818103600083015261312481612ef2565b9050919050565b60006020820190506131406000830184612f15565b92915050565b600060208201905061315b6000830184612f24565b92915050565b600081519050919050565b600082825260208201905092915050565b6000613188826132d0565b9150613193836132d0565b9250827fffffffffffffffffffffffffffffffffffffffffffffffffffffffffffffffff038211156131c8576131c7613395565b5b828201905092915050565b60006131de826132d0565b91506131e9836132d0565b9250826131f9576131f86133c4565b5b828204905092915050565b600061320f826132d0565b915061321a836132d0565b9250817fffffffffffffffffffffffffffffffffffffffffffffffffffffffffffffffff048311821515161561325357613252613395565b5b828202905092915050565b6000613269826132d0565b9150613274836132d0565b92508282101561328757613286613395565b5b828203905092915050565b600061329d826132b0565b9050919050565b60008115159050919050565b600073ffffffffffffffffffffffffffffffffffffffff82169050919050565b6000819050919050565b600060ff82169050919050565b60005b838110156133055780820151818401526020810190506132ea565b83811115613314576000848401525b50505050565b6000600282049050600182168061333257607f821691505b60208210811415613346576133456133f3565b5b50919050565b6000613357826132d0565b91507fffffffffffffffffffffffffffffffffffffffffffffffffffffffffffffffff82141561338a57613389613395565b5b600182019050919050565b7f4e487b7100000000000000000000000000000000000000000000000000000000600052601160045260246000fd5b7f4e487b7100000000000000000000000000000000000000000000000000000000600052601260045260246000fd5b7f4e487b7100000000000000000000000000000000000000000000000000000000600052602260045260246000fd5b6000601f19601f8301169050919050565b7f4b5554454b4f493a20617070726f76652066726f6d20746865207a65726f206160008201527f6464726573730000000000000000000000000000000000000000000000000000602082015250565b7f416d6f756e74206d757374206265206c657373207468616e20746f74616c207260008201527f65666c656374696f6e7300000000000000000000000000000000000000000000602082015250565b7f4f776e61626c653a206e6577206f776e657220697320746865207a65726f206160008201527f6464726573730000000000000000000000000000000000000000000000000000602082015250565b7f536166654d6174683a206164646974696f6e206f766572666c6f770000000000600082015250565b7f4b5554454b4f493a20617070726f766520746f20746865207a65726f2061646460008201527f7265737300000000000000000000000000000000000000000000000000000000602082015250565b7f4163636f756e7420697320616c7265616479206578636c756465640000000000600082015250565b7f4b5554454b4f493a207472616e7366657220746f20746865207a65726f20616460008201527f6472657373000000000000000000000000000000000000000000000000000000602082015250565b7f416d6f756e74206d757374206265206c657373207468616e20737570706c7900600082015250565b7f536166654d6174683a206d756c7469706c69636174696f6e206f766572666c6f60008201527f7700000000000000000000000000000000000000000000000000000000000000602082015250565b7f4f776e61626c653a2063616c6c6572206973206e6f7420746865206f776e6572600082015250565b7f5472616e7366657220616d6f756e74206d75737420626520677265617465722060008201527f7468616e207a65726f0000000000000000000000000000000000000000000000602082015250565b7f4b5554454b4f493a207472616e736665722066726f6d20746865207a65726f2060008201527f6164647265737300000000000000000000000000000000000000000000000000602082015250565b7f4578636c75646564206164647265737365732063616e6e6f742063616c6c207460008201527f6869732066756e6374696f6e0000000000000000000000000000000000000000602082015250565b6137a781613292565b81146137b257600080fd5b50565b6137be816132a4565b81146137c957600080fd5b50565b6137d5816132d0565b81146137e057600080fd5b5056fe4b5554454b4f493a207472616e7366657220616d6f756e74206578636565647320616c6c6f77616e63654b5554454b4f493a2064656372656173656420616c6c6f77616e63652062656c6f77207a65726fa2646970667358221220ea1c7d59708088475727a7c2c64125fdaf19008a995a277d11b31aceea8741b464736f6c63430008040033",
  "linkReferences": {},
  "deployedLinkReferences": {}
}