{
  "_format": "hh-sol-artifact-1",
  "contractName": "Stakeable",
  "sourceName": "contracts/Stakeable.sol",
  "abi": [
    {
      "inputs": [],
      "stateMutability": "nonpayable",
      "type": "constructor"
    },
    {
      "anonymous": false,
      "inputs": [
        {
          "indexed": true,
          "internalType": "address",
          "name": "user",
          "type": "address"
        },
        {
          "indexed": false,
          "internalType": "uint256",
          "name": "amount",
          "type": "uint256"
        },
        {
          "indexed": false,
          "internalType": "uint256",
          "name": "index",
          "type": "uint256"
        },
        {
          "indexed": false,
          "internalType": "uint256",
          "name": "timestamp",
          "type": "uint256"
        }
      ],
      "name": "Staked",
      "type": "event"
    },
    {
      "inputs": [
        {
          "internalType": "address",
          "name": "_staker",
          "type": "address"
        }
      ],
      "name": "hasStake",
      "outputs": [
        {
          "components": [
            {
              "internalType": "uint256",
              "name": "total_amount",
              "type": "uint256"
            },
            {
              "components": [
                {
                  "internalType": "address",
                  "name": "user",
                  "type": "address"
                },
                {
                  "internalType": "uint256",
                  "name": "amount",
                  "type": "uint256"
                },
                {
                  "internalType": "uint256",
                  "name": "since",
                  "type": "uint256"
                },
                {
                  "internalType": "uint256",
                  "name": "claimable",
                  "type": "uint256"
                }
              ],
              "internalType": "struct Stakeable.Stake[]",
              "name": "stakes",
              "type": "tuple[]"
            }
          ],
          "internalType": "struct Stakeable.StakingSummary",
          "name": "",
          "type": "tuple"
        }
      ],
      "stateMutability": "view",
      "type": "function"
    }
  ],
  "bytecode": "0x60806040526103e860025534801561001657600080fd5b5060006001816001815401808255809150500390600052602060002090505061071c806100446000396000f3fe608060405234801561001057600080fd5b506004361061002b5760003560e01c8063e73e14bf14610030575b600080fd5b61004a60048036038101906100459190610376565b610060565b60405161005791906104c5565b60405180910390f35b610068610347565b6000806040518060400160405280600081526020016000600160008873ffffffffffffffffffffffffffffffffffffffff1673ffffffffffffffffffffffffffffffffffffffff16815260200190815260200160002054815481106100f6577f4e487b7100000000000000000000000000000000000000000000000000000000600052603260045260246000fd5b9060005260206000209060020201600101805480602002602001604051908101604052809291908181526020016000905b828210156101cd57838290600052602060002090600402016040518060800160405290816000820160009054906101000a900473ffffffffffffffffffffffffffffffffffffffff1673ffffffffffffffffffffffffffffffffffffffff1673ffffffffffffffffffffffffffffffffffffffff168152602001600182015481526020016002820154815260200160038201548152505081526020019060010190610127565b50505050815250905060005b8160200151518110156102f057600061023583602001518381518110610228577f4e487b7100000000000000000000000000000000000000000000000000000000600052603260045260246000fd5b6020026020010151610305565b90508083602001518381518110610275577f4e487b7100000000000000000000000000000000000000000000000000000000600052603260045260246000fd5b60200260200101516060018181525050826020015182815181106102c2577f4e487b7100000000000000000000000000000000000000000000000000000000600052603260045260246000fd5b602002602001015160200151846102d99190610520565b9350506001816102e99190610520565b90506101d9565b50818160000181815250508092505050919050565b60006002548260200151610e108460400151426103229190610601565b61032c9190610576565b61033691906105a7565b6103409190610576565b9050919050565b604051806040016040528060008152602001606081525090565b600081359050610370816106cf565b92915050565b60006020828403121561038857600080fd5b600061039684828501610361565b91505092915050565b60006103ab8383610424565b60808301905092915050565b6103c081610635565b82525050565b60006103d1826104f7565b6103db818561050f565b93506103e6836104e7565b8060005b838110156104175781516103fe888261039f565b975061040983610502565b9250506001810190506103ea565b5085935050505092915050565b60808201600082015161043a60008501826103b7565b50602082015161044d60208501826104b6565b50604082015161046060408501826104b6565b50606082015161047360608501826104b6565b50505050565b600060408301600083015161049160008601826104b6565b50602083015184820360208601526104a982826103c6565b9150508091505092915050565b6104bf81610667565b82525050565b600060208201905081810360008301526104df8184610479565b905092915050565b6000819050602082019050919050565b600081519050919050565b6000602082019050919050565b600082825260208201905092915050565b600061052b82610667565b915061053683610667565b9250827fffffffffffffffffffffffffffffffffffffffffffffffffffffffffffffffff0382111561056b5761056a610671565b5b828201905092915050565b600061058182610667565b915061058c83610667565b92508261059c5761059b6106a0565b5b828204905092915050565b60006105b282610667565b91506105bd83610667565b9250817fffffffffffffffffffffffffffffffffffffffffffffffffffffffffffffffff04831182151516156105f6576105f5610671565b5b828202905092915050565b600061060c82610667565b915061061783610667565b92508282101561062a57610629610671565b5b828203905092915050565b600061064082610647565b9050919050565b600073ffffffffffffffffffffffffffffffffffffffff82169050919050565b6000819050919050565b7f4e487b7100000000000000000000000000000000000000000000000000000000600052601160045260246000fd5b7f4e487b7100000000000000000000000000000000000000000000000000000000600052601260045260246000fd5b6106d881610635565b81146106e357600080fd5b5056fea2646970667358221220ba5cf290f90786b87c5d3e63bd4d9e4ddd9ad78e4f1abe6136f900ca4cc9c2a164736f6c63430008040033",
  "linkReferences": {},
  "deployedLinkReferences": {}
}